:020000040000FA
:060000000A128A11EE2F26
:100F3A003F3406345B344F3466346D347D340734C1
:100F4A007F3467347E088A007F0882000A128A1179
:100F5A00A7270A128A118000840A04087D06031949
:100F6A000034FF0A0319FE0AAB2F83160313860106
:100F7A0001308700831203138601203084002B304E
:100F8A00F0000408F1000A30F200700884008313AC
:100F9A000008F300F00A7108840073088000F10A5F
:100FAA00F20BCA2FAA01071CDB2FDC2FD82F2A0825
:100FBA00203E84008313000886000718E52FE62FD9
:100FCA00E22F0130F0007008AA07D82F0A128A11FE
:100FDA00002883133530FD000730FE009D30FF00E6
:100FEA002B3084000A128A11AB270A128A11830154
:060FFA000A128A11BA2F51
:00000001FF
